:100000000C9462000C948A000C948A000C948A0070
:100010000C948A000C948A000C948A000C948A0038
:100020000C948A000C948A000C948A000C948A0028
:100030000C948A000C948A000C948A000C948A0018
:100040000C9463040C948A000C9431040C940B04FB
:100050000C948A000C948A000C948A000C948A00F8
:100060000C948A000C948A000000000024002700F1
:100070002A0000000000250028002B0000000008D6
:10008000000201000003040700000000000000005F
:1000900000000000230026002900040404040404D6
:1000A0000404020202020202030303030303010227
:1000B00004081020408001020408102001020408F6
:1000C0001020F20411241FBECFEFD8E0DEBFCDBF59
:1000D00011E0A0E0B1E0E0E6FEE002C005900D9284
:1000E000AA35B107D9F722E0AAE5B1E001C01D9217
:1000F000AA31B207E1F710E0C2E6D0E004C02197D0
:10010000FE010E941407C136D107C9F70E945705A6
:100110000C942E070C940000AF92BF92CF92DF9206
:10012000EF92FF920F931F93CF93DF936C017B01AC
:100130008B01040F151FEB015E01AE18BF08C0173D
:10014000D10759F06991D601ED91FC910190F081B0
:10015000E02DC6010995892B79F7C501DF91CF9173
:100160001F910F91FF90EF90DF90CF90BF90AF90D5
:100170000895FC01538D448D252F30E0842F90E0AD
:10018000821B930B541710F0CF9608950197089592
:10019000FC01918D828D981761F0A28DAE0FBF2F5B
:1001A000B11D5D968C91928D9F5F9F73928F90E0B1
:1001B00008958FEF9FEF0895FC01918D828D981720
:1001C00031F0828DE80FF11D858D90E008958FEF5D
:1001D0009FEF0895FC01918D228D892F90E0805C26
:1001E0009F4F821B91098F739927089583E691E0B1
:1001F0000E94EA0021E0892B09F420E0822F089573
:1002000080E090E0892B29F00E94F60081110C9487
:1002100000000895FC01A48DA80FB92FB11DA35AA9
:10022000BF4F2C91848D90E001968F739927848F16
:10023000A689B7892C93A089B1898C918370806439
:100240008C93938D848D981306C00288F389E02DDA
:1002500080818F7D80830895EF92FF920F931F938B
:10026000CF93DF93EC0181E0888F9B8D8C8D981369
:100270001AC0E889F989808185FF15C09FB7F89475
:10028000EE89FF896083E889F989808183708064C1
:1002900080839FBF81E090E0DF91CF911F910F910C
:1002A000FF90EF900895F62E0B8D10E00F5F1F4F1B
:1002B0000F731127E02E8C8D8E110CC00FB607FC2A
:1002C000FACFE889F989808185FFF5CFCE010E94B8
:1002D0000A01F1CFEB8DEC0FFD2FF11DE35AFF4F1B
:1002E000F0829FB7F8940B8FEA89FB898081806246
:1002F000CFCFCF93DF93EC01888D8823B9F0AA8903
:10030000BB89E889F9898C9185FD03C0808186FDD0
:100310000DC00FB607FCF7CF8C9185FFF2CF80811F
:1003200085FFEDCFCE010E940A01E9CFDF91CF9189
:10033000089590E0FC01E458FF4F2491FC01E25540
:10034000FF4F3491FC01E656FF4FE491EE23C9F0D4
:10035000222339F0233001F1A8F4213019F12230A1
:1003600029F1F0E0EE0FFF1FEE58FF4FA591B49179
:100370008FB7F894EC91611126C030953E233C93E1
:100380008FBF08952730A9F02830C9F0243049F7ED
:10039000809180008F7D03C0809180008F77809353
:1003A0008000DFCF84B58F7784BDDBCF84B58F7DB0
:1003B000FBCF8091B0008F778093B000D2CF809137
:1003C000B0008F7DF9CF3E2BDACFCF93DF93EC01D6
:1003D0008091080290910902029749F4C130D10539
:1003E00009F43BC06CF560E0209709F437C08091B8
:1003F000080290910902049749F4C130D10509F42B
:100400005CC00CF037C0209709F442C0809108020C
:1004100090910902059709F0E5C0CA30D10508F0AE
:10042000E1C0FE01EA5EFD4F0C94140775028102E3
:100430009202A802C302C502CC02D802E902F0026D
:10044000C230D105A9F060E0C330D10581F68091BA
:100450000C020E94990160E006C061E080910C02EC
:100460000E94990161E080910E020E949901BFCF24
:1004700061E0EDCFC230D10539F1C330D10509F0CB
:10048000C5CF61E080910C020E94990160E022C01A
:1004900061E080910C020E94990160E080910E025F
:1004A0000E94990161E0809110020E94990160E030
:1004B000809112020E949901A9CF60E080910C0204
:1004C0000E94990161E0EACF60E080910C020E94F5
:1004D000990161E080910E020E94990160E0809193
:1004E00010020E94990161E0E3CF60E080910C026C
:1004F0000E94990161E080910E020E94990161E0E1
:100500000BC060E080910C020E94990161E0809133
:100510000E020E94990160E0809110020E949901F0
:1005200060E010C060E080910C020E94990161E0DF
:1005300080910E020E94990160E0809110020E9459
:10054000990161E0809112020E94990161E015C059
:1005500060E080910C020E94990161E080910E029E
:100560000E94990160E0809110020E94990161E06F
:10057000809112020E94990160E080911402DF9143
:10058000CF910C94990161E0E4CF61E080910C027D
:100590000E94990160E0E2CF61E080910C020E942C
:1005A000990160E080910E020E94990161E0DBCF29
:1005B00061E080910C020E94990160E080910E023E
:1005C0000E94990161E0809110020E94990160E00F
:1005D000CFCF61E080910C020E94990160E08BCF47
:1005E00060E0F8CFDF91CF910895CF93DF9390E053
:1005F000FC01E255FF4F249186569F4FFC018491E8
:100600008823D1F090E0880F991FFC01E859FF4F33
:10061000A591B491FC01EE58FF4FC591D4916111A1
:100620000EC09FB7F8948C91E22FE0958E238C93A7
:100630002881E223E8839FBFDF91CF9108958FB790
:10064000F894EC91E22BEC938FBFF6CF3FB7F89480
:1006500080915F0190916001A0916101B091620170
:1006600026B5A89B05C02F3F19F00196A11DB11D0D
:100670003FBFBA2FA92F982F8827BC01CD01620F49
:10068000711D811D911D42E0660F771F881F991F04
:100690004A95D1F708954F925F926F927F928F9211
:1006A0009F92AF92BF92EF92FF920F931F93CF93BF
:1006B000DF93EC0197FF04C0CC27DD27C81BD90BC3
:1006C000181619060CF061C081E090E090930102C9
:1006D0008093000204E010E08AE0E82EF12C2097DD
:1006E00009F46FC00E9426038090160290901702B2
:1006F000A0901802B09019022B013C01481859082B
:100700006A087B088090020290900302A090040285
:10071000B0900502481459046A047B0400F3609306
:100720001602709317028093180290931902809119
:100730000A0290910B0220910002309101022130B7
:10074000310559F5019690930B0280930A0220918E
:100750000602309107028217930721F410920B02D0
:1007600010920A02219780910A0290910B02209127
:10077000080230910902B7012530310509F0B801AE
:100780000E94BF060E94E501AACF892B09F4A2CFDF
:1007900010920102109200029DCF892B41F48091AA
:1007A00006029091070290930B0280930A028091B7
:1007B0000A0290910B02019790930B0280930A0218
:1007C000D1CFDF91CF911F910F91FF90EF90BF900C
:1007D000AF909F908F907F906F905F904F90089513
:1007E000FC0101900020E9F73197AF01481B590B3C
:1007F000BC0183E691E00C948C00CF93DF930E94C0
:10080000F003EC0182E191E00E94F0038C0F9D1F48
:10081000DF91CF9108951F920F920FB60F9211247E
:100820002F933F934F935F936F937F938F939F93F8
:10083000AF93BF93EF93FF9383E691E00E940A0189
:10084000FF91EF91BF91AF919F918F917F916F91A8
:100850005F914F913F912F910F900FBE0F901F907E
:1008600018951F920F920FB60F9211242F938F930A
:100870009F93EF93FF93E0917301F0917401808156
:10088000E0917901F0917A0182FD1BC09081809105
:100890007C018F5F8F7320917D01821741F0E09181
:1008A0007C01F0E0ED59FE4F958F80937C01FF9124
:1008B000EF919F918F912F910F900FBE0F901F90EE
:1008C00018958081F4CF1F920F920FB60F921124CA
:1008D0002F933F938F939F93AF93BF9380915B012F
:1008E00090915C01A0915D01B0915E0130915A013F
:1008F00023E0230F2D3758F50196A11DB11D20933C
:100900005A0180935B0190935C01A0935D01B093C9
:100910005E0180915F0190916001A0916101B091B1
:1009200062010196A11DB11D80935F01909360014A
:10093000A0936101B0936201BF91AF919F918F919C
:100940003F912F910F900FBE0F901F90189526E8A2
:10095000230F0296A11DB11DD2CFCF92DF92EF924D
:10096000FF920F931F93E82FF92F05C00150110933
:100970002109310961F1908196239417B9F305C0DB
:10098000015011092109310911F190819623941325
:10099000F7CFC12CD12CE12CF12C0AC08FEFC81A53
:1009A000D80AE80AF80A0C151D052E053F0579F04E
:1009B00080818623841791F36C2D7D2D8E2D9F2DA4
:1009C0001F910F91FF90EF90DF90CF90089560E01E
:1009D00070E080E090E01F910F91FF90EF90DF902A
:1009E000CF900895CF93DF93E3E6F1E01382128274
:1009F00088EE93E0A0E0B0E084839583A683B7837C
:100A000084E091E09183808385EC90E095878487F2
:100A100084EC90E09787868780EC90E0918B808BC8
:100A200081EC90E0938B828B82EC90E0958B848BB1
:100A300086EC90E0978B868B118E128E138E148E1F
:100A4000C0E0D2E01B861A86198218821E8A1F8A8D
:100A5000188E198E88EC90E09F838E8388E090E05A
:100A60009D878C8789E090E09F878E878AE090E061
:100A7000998B888B8BE090E09B8B8A8B61E088E080
:100A80000E94F50261E08E850E94F50261E088898E
:100A90000E94F50261E08A890E94F5021D8A1C8A83
:100AA00084E090E099878887DF91CF910895CF9374
:100AB000DF93CDB7DEB7A1970FB6F894DEBF0FBEB8
:100AC000CDBF789484B5826084BD84B5816084BDD7
:100AD00085B5826085BD85B5816085BD80916E00DC
:100AE000816080936E00109281008091810082600D
:100AF000809381008091810081608093810080914A
:100B000080008160809380008091B1008460809338
:100B1000B1008091B00081608093B00080917A0034
:100B2000846080937A0080917A00826080937A005A
:100B300080917A00816080937A0080917A00806849
:100B400080937A001092C100E0917301F0917401DA
:100B500082E08083E0916F01F09170011082E0915A
:100B60007101F09172018FEC808310927B01E09112
:100B70007701F091780186E08083E0917501F09132
:100B80007601808180618083E0917501F09176012A
:100B9000808188608083E0917501F0917601808189
:100BA00080688083E0917501F091760180818F7D6E
:100BB000808361E085E00E94F50260E086E00E94AB
:100BC000F50260E085E00E9499018BE090E00197DA
:100BD000F1F761E082E00E94F50261E083E00E94AB
:100BE000F50261E084E00E94F5022AE0422E512CD9
:100BF000612C712C30E0232E30E0332E60E082E057
:100C00000E94990160E083E00E94990160E084E025
:100C10000E94990161E085E00E94990183E290E0E1
:100C20000197F1F760E085E00E949901E4EBF0E0C4
:100C30006491E0EAF0E08491E82FF0E0EE0FFF1F0E
:100C4000E057FF4F8591949100E412E42FE030E0EB
:100C5000462F0E94AD04611571058105910529F0AB
:100C60006F5F7F4F8F4F9F4F9F7025EA30E040E0CE
:100C700050E00E94F50649015A0185E191E00E9489
:100C8000F00319A2A50194017E01F1E2EF0EF11C1F
:100C9000CA01B901A30192010E94D306605DF70168
:100CA00062937F01211531054105510589F7309780
:100CB00019F0CF010E94F00382E191E00E94F0035D
:100CC000FAE08F169104A104B104ECF561E084E030
:100CD0000E94990185E090E00E944B0381E291E03F
:100CE0000E94FD030E9426034B015C0184EFC82E85
:100CF000DD24D394E12CF12C0E9426036819790994
:100D00008A099B09683E734081059105A8F3E1E0DB
:100D1000CE1AD108E108F108F8EE8F0EF3E09F1E1D
:100D2000A11CB11CC114D104E104F10429F7211460
:100D3000310409F463CF0E94F600882309F45ECFE2
:100D40000E9400005BCF2AE0821A9108A108B10836
:100D500061E086E088169104A104B10430F483E0D8
:100D60000E94990186E391E0BBCF82E00E94990145
:100D70008BEF9FEF0E944B0388E491E0B1CF97FB8C
:100D8000072E16F4009407D077FD09D00E941A07A9
:100D900007FC05D03EF4909581959F4F089570957E
:100DA00061957F4F0895A1E21A2EAA1BBB1BFD017E
:100DB0000DC0AA1FBB1FEE1FFF1FA217B307E4073A
:100DC000F50720F0A21BB30BE40BF50B661F771F92
:100DD000881F991F1A9469F7609570958095909572
:100DE0009B01AC01BD01CF010895052E97FB1EF4B8
:100DF00000940E940C0757FD07D00E94D30607FC01
:100E000003D04EF40C940C075095409530952195E5
:100E10003F4F4F4F5F4F0895909580957095619526
:100E20007F4F8F4F9F4F0895EE0FFF1F0590F49156
:100E3000E02D0994AA1BBB1B51E107C0AA1FBB1FD1
:100E4000A617B70710F0A61BB70B881F991F5A9556
:100E5000A9F780959095BC01CD010895F894FFCF36
:100E6000000000002C018C00B9007901EA00C800E4
:100E7000DC000D0A0044697374616E6369613A2095
:100E8000005365206D7565766520616E7469486FE5
:100E9000726172696F004E6F20686179204D6F76C4
:100EA000696D69656E746F005365206D7565766553
:0A0EB00020486F726172696F000044
:00000001FF
