:100000000C945D000C9485000C9485000C94850084
:100010000C9485000C9485000C9485000C9485004C
:100020000C9485000C9485000C9485000C9485003C
:100030000C9485000C9485000C9485000C9485002C
:100040000C94A2040C9485000C9470040C944A0443
:100050000C9485000C9485000C9485000C9485000C
:100060000C9485000C9485000000000024002700FB
:100070002A0000000000250028002B0004040404CE
:100080000404040402020202020203030303030342
:10009000010204081020408001020408102001021F
:1000A00004081020000000080002010000030407FB
:1000B0000000000000000000EC0411241FBECFEF80
:1000C000D8E0DEBFCDBF11E0A0E0B1E0EEE5F4E1A5
:1000D00002C005900D92A83AB107D9F722E0A8EA2C
:1000E000B1E001C01D92AC36B207E1F710E0CDE5FA
:1000F000D0E004C02197FE010E94130ACC35D1073D
:10010000C9F70E9451050C942D0A0C940000AF927F
:10011000BF92CF92DF92EF92FF920F931F93CF93F4
:10012000DF936C017B018B01040F151FEB015E0156
:10013000AE18BF08C017D10759F06991D601ED91EB
:10014000FC910190F081E02DC6010995892B79F78A
:10015000C501DF91CF911F910F91FF90EF90DF903C
:10016000CF90BF90AF900895FC01538D448D252F03
:1001700030E0842F90E0821B930B541710F0CF9641
:10018000089501970895FC01918D828D981761F073
:10019000A28DAE0FBF2FB11D5D968C91928D9F5F8A
:1001A0009F73928F90E008958FEF9FEF0895FC0169
:1001B000918D828D981731F0828DE80FF11D858D1C
:1001C00090E008958FEF9FEF0895FC01918D228DAF
:1001D000892F90E0805C9F4F821B91098F73992734
:1001E000089585EB91E00E94E50021E0892B09F458
:1001F00020E0822F089580E090E0892B29F00E9472
:10020000F10081110C9400000895FC01A48DA80F49
:10021000B92FB11DA35ABF4F2C91848D90E0019648
:100220008F739927848FA689B7892C93A089B18968
:100230008C91837080648C93938D848D981306C009
:100240000288F389E02D80818F7D80830895EF926D
:10025000FF920F931F93CF93DF93EC0181E0888F80
:100260009B8D8C8D98131AC0E889F989808185FF50
:1002700015C09FB7F894EE89FF896083E889F989F2
:1002800080818370806480839FBF81E090E0DF91F4
:10029000CF911F910F91FF90EF900895F62E0B8D47
:1002A00010E00F5F1F4F0F731127E02E8C8D8E1102
:1002B0000CC00FB607FCFACFE889F989808185FF69
:1002C000F5CFCE010E940501F1CFEB8DEC0FFD2F94
:1002D000F11DE35AFF4FF0829FB7F8940B8FEA8924
:1002E000FB8980818062CFCFCF93DF93EC01888D33
:1002F0008823B9F0AA89BB89E889F9898C9185FDA1
:1003000003C0808186FD0DC00FB607FCF7CF8C912E
:1003100085FFF2CF808185FFEDCFCE010E940501E0
:10032000E9CFDF91CF91089590E0FC01EC55FF4FAC
:100330002491FC01E057FF4F3491FC01E458FF4F3A
:10034000E491EE23C9F0222339F0233001F1A8F41F
:10035000213019F1223029F1F0E0EE0FFF1FEE58A5
:10036000FF4FA591B4918FB7F894EC91611126C01D
:1003700030953E233C938FBF08952730A9F0283055
:10038000C9F0243049F7809180008F7D03C08091AF
:1003900080008F7780938000DFCF84B58F7784BD16
:1003A000DBCF84B58F7DFBCF8091B0008F778093BA
:1003B000B000D2CF8091B0008F7DF9CF3E2BDACF45
:1003C000CF93DF93EC0180915A0290915B020297E8
:1003D00049F4C130D10509F43BC06CF560E02097C9
:1003E00009F437C080915A0290915B02049749F456
:1003F000C130D10509F45CC00CF037C0209709F476
:1004000042C080915A0290915B02059709F0E5C0C5
:10041000CA30D10508F0E1C0FE01EF5EFD4F0C943B
:10042000130A70027C028D02A302BE02C002C70240
:10043000D302E402EB02C230D105A9F060E0C33080
:10044000D10581F680915E020E94940160E006C0B1
:1004500061E080915E020E94940161E080916002FF
:100460000E949401BFCF61E0EDCFC230D10539F1D8
:10047000C330D10509F0C5CF61E080915E020E94D2
:10048000940160E022C061E080915E020E949401CC
:1004900060E0809160020E94940161E080916202BC
:1004A0000E94940160E0809164020E949401A9CFAF
:1004B00060E080915E020E94940161E0EACF60E01A
:1004C00080915E020E94940161E0809160020E942E
:1004D000940160E0809162020E94940161E0E3CFA8
:1004E00060E080915E020E94940161E08091600270
:1004F0000E94940161E00BC060E080915E020E9466
:10050000940161E0809160020E94940160E080911A
:1005100062020E94940160E010C060E080915E027F
:100520000E94940161E0809160020E94940160E069
:10053000809162020E94940161E0809164020E94B5
:10054000940161E015C060E080915E020E94940118
:1005500061E0809160020E94940160E080916202FB
:100560000E94940161E0809164020E94940160E025
:1005700080916602DF91CF910C94940161E0E4CF09
:1005800061E080915E020E94940160E0E2CF61E050
:1005900080915E020E94940160E0809160020E945E
:1005A000940161E0DBCF61E080915E020E949401E2
:1005B00060E0809160020E94940161E0809162029B
:1005C0000E94940160E0CFCF61E080915E020E94C2
:1005D000940160E08BCF60E0F8CFDF91CF91089578
:1005E000CF93DF9390E0FC01E057FF4F24918458B4
:1005F0009F4FFC0184918823D1F090E0880F991FD0
:10060000FC01E859FF4FA591B491FC01EE58FF4F52
:10061000C591D49161110EC09FB7F8948C91E22FCF
:10062000E0958E238C932881E223E8839FBFDF919E
:10063000CF9108958FB7F894EC91E22BEC938FBF94
:10064000F6CF3FB7F8948091AD019091AE01A091A3
:10065000AF01B091B00126B5A89B05C02F3F19F09E
:100660000196A11DB11D3FBFBA2FA92F982F882732
:10067000BC01CD01620F711D811D911D42E0660F0D
:10068000771F881F991F4A95D1F708954F925F925F
:100690006F927F928F929F92AF92BF92EF92FF9252
:1006A0000F931F93CF93DF93EC0197FF04C0CC27E8
:1006B000DD27C81BD90B181619060CF061C081E0A4
:1006C00090E0909353028093520204E010E08AE09D
:1006D000E82EF12C209709F46FC00E94210380902E
:1006E000680290906902A0906A02B0906B022B01A0
:1006F0003C01481859086A087B0880905402909081
:100700005502A0905602B0905702481459046A044A
:100710007B0400F3609368027093690280936A021D
:1007200090936B0280915C0290915D022091520245
:10073000309153022130310559F5019690935D02B5
:1007400080935C02209158023091590282179307DE
:1007500021F410925D0210925C02219780915C025C
:1007600090915D0220915A0230915B02B7012530D1
:10077000310509F0B8010E94BE090E94E001AACF2C
:10078000892B09F4A2CF10925302109252029DCFEE
:10079000892B41F4809158029091590290935D0207
:1007A00080935C0280915C0290915D02019790932E
:1007B0005D0280935C02D1CFDF91CF911F910F91A9
:1007C000FF90EF90BF90AF909F908F907F906F9031
:1007D0005F904F900895FC0101900020E9F7319758
:1007E000AF01481B590BBC0185EB91E00C948700CD
:1007F0008F929F92AF92BF920F931F93CF93DF93ED
:10080000CDB7DEB7A1970FB6F894DEBF0FBECDBF50
:1008100019A2423008F44AE08E010F5D1F4F842E6A
:10082000912CB12CA12CA50194010E94D209E62F94
:10083000B901CA01EA30F4F4E05DD801EE938D010C
:10084000232B242B252B79F790E080E0109719F0CB
:10085000CD010E94EB03A1960FB6F894DEBF0FBE48
:10086000CDBFDF91CF911F910F91BF90AF909F901F
:100870008F900895E95CE1CFCF93DF930E94EB0363
:10088000EC0182E191E00E94EB038C0F9D1FDF9150
:10089000CF9108951F920F920FB60F9211242F93AC
:1008A0003F934F935F936F937F938F939F93AF93F8
:1008B000BF93EF93FF9385EB91E00E940501FF91B9
:1008C000EF91BF91AF919F918F917F916F915F91C8
:1008D0004F913F912F910F900FBE0F901F90189541
:1008E0001F920F920FB60F9211242F938F939F9305
:1008F000EF93FF93E091C501F091C6018081E091F3
:10090000CB01F091CC0182FD1BC090818091CE0182
:100910008F5F8F732091CF01821741F0E091CE015C
:10092000F0E0EB54FE4F958F8093CE01FF91EF9155
:100930009F918F912F910F900FBE0F901F90189540
:100940008081F4CF1F920F920FB60F9211242F9334
:100950003F938F939F93AF93BF938091A901909101
:10096000AA01A091AB01B091AC013091A80123E0A4
:10097000230F2D3758F50196A11DB11D2093A80115
:100980008093A9019093AA01A093AB01B093AC010D
:100990008091AD019091AE01A091AF01B091B001F5
:1009A0000196A11DB11D8093AD019093AE01A0935E
:1009B000AF01B093B001BF91AF919F918F913F91E3
:1009C0002F910F900FBE0F901F90189526E8230FC0
:1009D0000296A11DB11DD2CFCF93DF93E5EBF1E0DD
:1009E0001382128288EE93E0A0E0B0E084839583C6
:1009F000A683B78384E091E09183808385EC90E0C7
:100A00009587848784EC90E09787868780EC90E0D8
:100A1000918B808B81EC90E0938B828B82EC90E0C9
:100A2000958B848B86EC90E0978B868B118E128E43
:100A3000138E148EC2E5D2E01B861A8619821882A4
:100A40001E8A1F8A188E198E88EC90E09F838E83F1
:100A500088E090E09D878C8789E090E09F878E8773
:100A60008AE090E0998B888B8BE090E09B8B8A8B5F
:100A700061E088E00E94F00261E08E850E94F00251
:100A800061E088890E94F00261E08A890E94F00298
:100A90001D8A1C8A84E090E099878887DF91CF9136
:100AA0000895789484B5826084BD84B5816084BDE6
:100AB00085B5826085BD85B5816085BD80916E00FC
:100AC000816080936E00109281008091810082602D
:100AD000809381008091810081608093810080916A
:100AE00080008160809380008091B1008460809359
:100AF000B1008091B00081608093B00080917A0055
:100B0000846080937A0080917A00826080937A007A
:100B100080917A00816080937A0080917A00806869
:100B200080937A001092C100E091C501F091C60156
:100B300082E08083E091C101F091C2011082E091D6
:100B4000C301F091C4018FEC80831092CD01E0913C
:100B5000C901F091CA0186E08083E091C701F0915C
:100B6000C801808180618083E091C701F091C80154
:100B7000808188608083E091C701F091C801808105
:100B800080688083E091C701F091C80180818F7DEA
:100B9000808360E08EE00E94F00220915802309144
:100BA0005902032E000C440B550B60E077E883E9F3
:100BB00093E00E94F409209354023093550240932D
:100BC00056025093570261E082E00E94F00261E019
:100BD00083E00E94F00261E084E00E94F00210E4F1
:100BE000C0E0D0E010937C0080917A008064809314
:100BF0007A0080917A0086FDFCCF80917800609128
:100C00007900762F682F072E000C880B990B0E9415
:100C1000970820E030E040E85AE30E944C0920E0C9
:100C200030E44CE955E40E944C0920E030E040E219
:100C300051E40E94F4076093B1017093B201809374
:100C4000B3019093B40185E191E00E94EB03C09061
:100C5000B101D090B201E090B301F090B401A701CE
:100C60009601C701B6010E94B909882309F4B8C0EA
:100C700083E291E00E94EB038FE291E00E943C044A
:100C800020E030E040EA51E46091B1017091B2019E
:100C90008091B3019091B4010E9447091816C4F4E1
:100CA00061E082E00E94940160E083E00E94940190
:100CB00060E084E00E94940181E391E00E943C04A2
:100CC00085E090E00E94460385E491E00E943C04A8
:100CD000C090B101D090B201E090B301F090B401A6
:100CE00020E030E040E251E4C701B6010E9447092C
:100CF00087FD1EC020E030E040EA51E4C701B601A4
:100D00000E94EF071816A4F060E082E00E949401B0
:100D100061E083E00E94940160E084E00E9494011D
:100D20008AE591E00E943C0481E791E00E943C0446
:100D300020E030E040E251E46091B1017091B201F5
:100D40008091B3019091B4010E94EF0787FF18C012
:100D500060E082E00E94940160E083E00E949401E0
:100D600061E084E00E94940183E891E00E943C04E9
:100D70008BEF9FEF0E94460386E991E00E943C04BE
:100D80000E9421036B017C0188EE882E83E0982E5F
:100D9000A12CB12C0E9421036C197D098E099F0999
:100DA000683E734081059105A8F321E0821A9108FD
:100DB000A108B10888EEC80E83E0D81EE11CF11C22
:100DC00081149104A104B10429F7209709F40ACFF2
:100DD0000E94F100882309F405CF0E94000002CF91
:100DE00046015701E894B7F82FEF3FEF4FE75FE771
:100DF000C501B4010E94B90981110DC02FEF3FEF69
:100E00004FE75FE7C501B4010E94EF0718161CF415
:100E100087E291E02FCF2FEF3FEF4FE75FE4C7016D
:100E2000B6010E94470918161CF48BE291E022CF0C
:100E30002FEF3FEF4FE75FECC701B6010E94EF07CE
:100E400087FDF3CF20E030E0A901C701B6010E9481
:100E5000EF0787FF09C06DE285EB91E00E94270153
:100E6000F7FAF094F7F8F0942AE037ED43EA5BE301
:100E7000C701B6010E9483074B015C010E9466080E
:100E80006B017C010E9495089B01AC01C501B40176
:100E90000E9482074B015C014AE0C701B6010E9433
:100EA000F8036EE285EB91E00E94270120E030E03C
:100EB00040E251E4C501B4010E944C094B015C01C0
:100EC0000E9466086B01F12CE12C4AE0C701B601D3
:100ED0000E94F803C701B6010E9495089B01AC016E
:100EE000C501B4010E94820720E030E040E251E4F5
:100EF0000E944C090E94660890E080E04AE00E944F
:100F0000F803BACE5058BB27AA270E949A070C9420
:100F10000D090E94FF0838F00E94060920F039F4FC
:100F20009F3F19F426F40C94FC080EF4E095E7FBBF
:100F30000C94F608E92F0E941E0958F3BA176207AD
:100F400073078407950720F079F4A6F50C944009FF
:100F50000EF4E0950B2EBA2FA02D0B01B9019001D4
:100F60000C01CA01A0011124FF27591B99F0593F18
:100F700050F4503E68F11A16F040A22F232F342F60
:100F80004427585FF3CF469537952795A795F040AE
:100F90005395C9F77EF41F16BA0B620B730B840BC3
:100FA000BAF09150A1F0FF0FBB1F661F771F881F7B
:100FB000C2F70EC0BA0F621F731F841F48F48795D3
:100FC00077956795B795F7959E3F08F0B0CF9395C5
:100FD000880F08F09927EE0F9795879508950E943E
:100FE000D20808F481E008950E9408080C940D09C5
:100FF0000E94060958F00E94FF0840F029F45F3F64
:1010000029F00C94F60851110C9441090C94FC0839
:101010000E941E0968F39923B1F3552391F3951BA0
:10102000550BBB27AA2762177307840738F09F5F09
:101030005F4F220F331F441FAA1FA9F335D00E2E76
:101040003AF0E0E832D091505040E695001CCAF7E3
:101050002BD0FE2F29D0660F771F881FBB1F2617A6
:1010600037074807AB07B0E809F0BB0B802DBF017D
:10107000FF2793585F4F3AF09E3F510578F00C944C
:10108000F6080C9441095F3FE4F3983ED4F386954B
:1010900077956795B795F7959F5FC9F7880F911D6D
:1010A0009695879597F90895E1E0660F771F881F59
:1010B000BB1F621773078407BA0720F0621B730B0C
:1010C000840BBA0BEE1F88F7E09508950E9426095D
:1010D00088F09F5798F0B92F9927B751B0F0E1F0F9
:1010E000660F771F881F991F1AF0BA95C9F714C0A9
:1010F000B13091F00E944009B1E008950C9440098C
:10110000672F782F8827B85F39F0B93FCCF38695E1
:1011100077956795B395D9F73EF49095809570953E
:1011200061957F4F8F4F9F4F0895E89409C097FBBB
:101130003EF490958095709561957F4F8F4F9F4FAE
:101140009923A9F0F92F96E9BB279395F6958795F2
:1011500077956795B795F111F8CFFAF4BB0F11F4B5
:1011600060FF1BC06F5F7F4F8F4F9F4F16C088235C
:1011700011F096E911C0772321F09EE8872F762F92
:1011800005C0662371F096E8862F70E060E02AF0D3
:101190009A95660F771F881FDAF7880F96958795BF
:1011A00097F90895990F0008550FAA0BE0E8FEEF94
:1011B00016161706E807F907C0F012161306E4071B
:1011C000F50798F0621B730B840B950B39F40A2614
:1011D00061F0232B242B252B21F408950A2609F4F2
:1011E000A140A6958FEF811D811D089597F99F67F6
:1011F00080E870E060E008959FEF80EC089500249F
:101200000A941616170618060906089500240A946B
:1012100012161306140605060895092E0394000CF1
:1012200011F4882352F0BB0F40F4BF2B11F460FF80
:1012300004C06F5F7F4F8F4F9F4F089557FD9058A9
:10124000440F551F59F05F3F71F04795880F97FB8A
:10125000991F61F09F3F79F0879508951216130644
:101260001406551FF2CF4695F1DF08C01616170673
:101270001806991FF1CF86957105610508940895A8
:10128000E894BB2766277727CB0197F908950E943A
:10129000D20808F48FEF08950E945F090C940D099D
:1012A0000E94FF0838F00E94060920F0952311F0F3
:1012B0000C94F6080C94FC0811240C9441090E942B
:1012C0001E0970F3959FC1F3950F50E0551F629F63
:1012D000F001729FBB27F00DB11D639FAA27F00D8F
:1012E000B11DAA1F649F6627B00DA11D661F829FB6
:1012F0002227B00DA11D621F739FB00DA11D621F9B
:10130000839FA00D611D221F749F3327A00D611DB7
:10131000231F849F600D211D822F762F6A2F112499
:101320009F5750409AF0F1F088234AF0EE0FFF1FCC
:10133000BB1F661F771F881F91505040A9F79E3F23
:10134000510580F00C94F6080C9441095F3FE4F3DA
:10135000983ED4F3869577956795B795F795E79579
:101360009F5FC1F7FE2B880F911D9695879597F982
:1013700008950E94D208880B990B089597FB072EB9
:1013800016F4009407D077FD09D00E94190A07FCD3
:1013900005D03EF4909581959F4F08957095619585
:1013A0007F4F0895A1E21A2EAA1BBB1BFD010DC0A1
:1013B000AA1FBB1FEE1FFF1FA217B307E407F50705
:1013C00020F0A21BB30BE40BF50B661F771F881FE1
:1013D000991F1A9469F760957095809590959B0177
:1013E000AC01BD01CF010895052E97FB1EF40094BA
:1013F0000E940B0A57FD07D00E94D20907FC03D0B8
:101400004EF40C940B0A50954095309521953F4F22
:101410004F4F5F4F089590958095709561957F4FE0
:101420008F4F9F4F0895EE0FFF1F0590F491E02D11
:101430000994AA1BBB1B51E107C0AA1FBB1FA6171B
:10144000B70710F0A61BB70B881F991F5A95A9F76D
:0E14500080959095BC01CD010895F894FFCFD2
:10145E000000000027018700B4007401E500C300FE
:10146E00D7000D0A0054656D7065726174757261F6
:10147E003A20006E616E00696E66006F76660043FC
:10148E0000536520616374697661204C4544207673
:10149E0065726465005365206D7565766520616EB5
:1014AE007469486F726172696F005365206163746D
:1014BE00697661204C454420616D6172696C6C6F78
:1014CE00004E6F20686179206D6F76696D69656E6B
:1014DE00746F00536520616374697661204C4544D6
:1014EE0020726F6A6F005365206D756576652048B2
:0814FE006F726172696F00005A
:00000001FF
