:100000000C945D000C9485000C9485000C94850084
:100010000C9485000C9485000C9485000C9485004C
:100020000C9485000C9485000C9485000C9485003C
:100030000C9485000C9485000C9485000C9485002C
:100040000C94BD060C9485000C948B060C946506EC
:100050000C9485000C9485000C9485000C9485000C
:100060000C9485000C94850000000008000201003B
:100070000003040700000000000000000000000072
:10008000250028002B0000000000240027002A0083
:10009000040404040404040402020202020203032E
:1000A0000303030301020408102040800102040836
:1000B0001020010204081020070711241FBECFEFF3
:1000C000D8E0DEBFCDBF11E0A0E0B1E0ECEFF6E19B
:1000D00002C005900D92A434B107D9F722E0A4E440
:1000E000B1E001C01D92A032B207E1F710E0CDE50A
:1000F000D0E004C02197FE010E94620BCC35D107ED
:10010000C9F70E9486070C947C0B0C94000090E0C9
:10011000FC01EC55FF4F249180579F4FFC018491C7
:10012000882399F090E0880F991FFC01EA57FF4F50
:10013000A591B491FC01E458FF4F859194918FB73C
:10014000F894EC91E22BEC938FBF0895AF92BF929D
:10015000CF92DF92EF92FF920F931F93CF93DF9393
:100160006C017B018B01040F151FEB015E01AE18C2
:10017000BF08C017D10759F06991D601ED91FC91E4
:100180000190F081E02DC6010995892B79F7C50111
:10019000DF91CF911F910F91FF90EF90DF90CF9063
:1001A000BF90AF900895FC01538D448D252F30E012
:1001B000842F90E0821B930B541710F0CF96089574
:1001C00001970895FC01918D828D981761F0A28DA1
:1001D000AE0FBF2FB11D5D968C91928D9F5F9F7367
:1001E000928F90E008958FEF9FEF0895FC01918D1D
:1001F000828D981731F0828DE80FF11D858D90E08A
:1002000008958FEF9FEF0895FC01918D228D892F26
:1002100090E0805C9F4F821B91098F73992708950E
:1002200081E591E00E94040121E0892B09F420E09E
:10023000822F089580E090E0892B29F00E94100120
:1002400081110C9400000895FC01A48DA80FB92F12
:10025000B11DA35ABF4F2C91848D90E001968F73EE
:100260009927848FA689B7892C93A089B1898C910D
:10027000837080648C93938D848D981306C002885C
:10028000F389E02D80818F7D80830895EF92FF9226
:100290000F931F93CF93DF93EC0181E0888F9B8DA9
:1002A0008C8D98131AC0E889F989808185FF15C063
:1002B0009FB7F894EE89FF896083E889F989808186
:1002C0008370806480839FBF81E090E0DF91CF9155
:1002D0001F910F91FF90EF900895F62E0B8D10E077
:1002E0000F5F1F4F0F731127E02E8C8D8E110CC0E6
:1002F0000FB607FCFACFE889F989808185FFF5CF31
:10030000CE010E942401F1CFEB8DEC0FFD2FF11DEA
:10031000E35AFF4FF0829FB7F8940B8FEA89FB896D
:1003200080818062CFCFCF93DF93EC01888D8823CB
:10033000B9F0AA89BB89E889F9898C9185FD03C048
:10034000808186FD0DC00FB607FCF7CF8C9185FF2D
:10035000F2CF808185FFEDCFCE010E942401E9CF4D
:10036000DF91CF91089590E0FC01E859FF4F24916F
:10037000FC01EC55FF4F3491FC01E057FF4FE49135
:10038000EE23C9F0222339F0233001F1A8F4213003
:1003900019F1223029F1F0E0EE0FFF1FE458FF4F72
:1003A000A591B4918FB7F894EC91611126C0309566
:1003B0003E233C938FBF08952730A9F02830C9F021
:1003C000243049F7809180008F7D03C080918000A8
:1003D0008F7780938000DFCF84B58F7784BDDBCFAC
:1003E00084B58F7DFBCF8091B0008F778093B00074
:1003F000D2CF8091B0008F7DF9CF3E2BDACFCF9353
:10040000DF93EC018091F6019091F701029749F496
:10041000C130D10509F43BC06CF560E0209709F4C8
:1004200037C08091F6019091F701049749F4C130EB
:10043000D10509F45CC00CF037C0209709F442C024
:100440008091F6019091F701059709F0E5C0CA3057
:10045000D10508F0E1C0FE01E05DFD4F0C94620B98
:100460008F029B02AC02C202DD02DF02E602F20250
:1004700003030A03C230D105A9F060E0C330D105FF
:1004800081F68091FA010E94B30160E006C061E04C
:100490008091FA010E94B30161E08091FC010E9409
:1004A000B301BFCF61E0EDCFC230D10539F1C33028
:1004B000D10509F0C5CF61E08091FA010E94B30136
:1004C00060E022C061E08091FA010E94B30160E027
:1004D0008091FC010E94B30161E08091FE010E94C5
:1004E000B30160E0809100020E94B301A9CF60E0F7
:1004F0008091FA010E94B30161E0EACF60E080914F
:10050000FA010E94B30161E08091FC010E94B301F5
:1005100060E08091FE010E94B30161E0E3CF60E002
:100520008091FA010E94B30161E08091FC010E9478
:10053000B30161E00BC060E08091FA010E94B30159
:1005400061E08091FC010E94B30160E08091FE01B6
:100550000E94B30160E010C060E08091FA010E9447
:10056000B30161E08091FC010E94B30160E08091E1
:10057000FE010E94B30161E0809100020E94B3017C
:1005800061E015C060E08091FA010E94B30161E072
:100590008091FC010E94B30160E08091FE010E9405
:1005A000B30161E0809100020E94B30160E080919C
:1005B0000202DF91CF910C94B30161E0E4CF61E0DE
:1005C0008091FA010E94B30160E0E2CF61E0809186
:1005D000FA010E94B30160E08091FC010E94B30126
:1005E00061E0DBCF61E08091FA010E94B30160E03D
:1005F0008091FC010E94B30161E08091FE010E94A4
:10060000B30160E0CFCF61E08091FA010E94B301B5
:1006100060E08BCF60E0F8CFDF91CF9108958E300E
:1006200008F08E508770806480937C0080917A00FF
:10063000806480937A0080917A0086FDFCCF80915F
:1006400078009091790008953FB7F894809149011E
:1006500090914A01A0914B01B0914C0126B5A89B05
:1006600005C02F3F19F00196A11DB11D3FBFBA2F44
:10067000A92F982F8827BC01CD01620F711D811D04
:10068000911D42E0660F771F881F991F4A95D1F789
:1006900008954F925F926F927F928F929F92AF9246
:1006A000BF92EF92FF920F931F93CF93DF93EC01D2
:1006B00097FF04C0CC27DD27C81BD90B18161906D5
:1006C0000CF061C081E090E09093EF018093EE0127
:1006D00004E010E08AE0E82EF12C209709F46FC0C6
:1006E0000E9424038090040290900502A0900602CC
:1006F000B09007022B013C01481859086A087B0892
:100700008090F0019090F101A090F201B090F3017F
:10071000481459046A047B0400F360930402709344
:10072000050280930602909307028091F801909150
:10073000F9012091EE013091EF012130310559F599
:1007400001969093F9018093F8012091F401309182
:10075000F5018217930721F41092F9011092F80124
:1007600021978091F8019091F9012091F601309143
:10077000F701B7012530310509F0B8010E942C0BB3
:100780000E94FF01AACF892B09F4A2CF1092EF019A
:100790001092EE019DCF892B41F48091F40190914C
:1007A000F5019093F9018093F8018091F8019091FF
:1007B000F90101979093F9018093F801D1CFDF916E
:1007C000CF911F910F91FF90EF90BF90AF909F90AE
:1007D0008F907F906F905F904F900895089590E074
:1007E00080E00895FC0101900020E9F73197AF0106
:1007F000481B590BBC0188E092E00C94A6008F9234
:100800009F92AF92BF920F931F93CF93DF93CDB779
:10081000DEB7A1970FB6F894DEBF0FBECDBF19A209
:10082000423008F44AE08E010F5D1F4F842E912C58
:10083000B12CA12CA50194010E94400BE62FB90117
:10084000CA01EA30F4F4E05DD801EE938D01232B68
:10085000242B252B79F790E080E0109719F0CD013B
:100860000E94F203A1960FB6F894DEBF0FBECDBF73
:10087000DF91CF911F910F91BF90AF909F908F907C
:100880000895E95CE1CFCF93DF93EC0160E08E81C6
:100890000E94B30161E08E810E94B30160E08E810D
:1008A0000E94B3018BE891E00197F1F7DF91CF91BE
:1008B0000895CF92DF92EF92FF920F931F93CF9301
:1008C000DF936C017C0187E0E80EF11CD0E0C0E012
:1008D000062F10E0B8010C2E02C0759567950A949A
:1008E000E2F76170F70181917F010E94B3012196C7
:1008F000C430D10579F7C601DF91CF911F910F91D7
:10090000FF90EF90DF90CF900C944304CF92DF9252
:10091000EF92FF920F931F93CF93DF93EC01F62E8C
:10092000642F8C810E94B3018D818F3F19F060E0AC
:100930000E94B3010F2D10E08F8584FF25C06E014A
:1009400087E0C80ED11CF12CE12CB8010E2C02C09E
:10095000759567950A94E2F76170F60181916F01D0
:100960000E94B301FFEFEF1AFF0A88E0E816F104D6
:1009700061F7CE01DF91CF911F910F91FF90EF9022
:10098000DF90CF900C944304B80184E0759567958F
:100990008A95E1F7CE010E9459046F2DCE01DF91B7
:1009A000CF911F910F91FF90EF90DF90CF900C941B
:1009B000590440E0682F88E092E00C948604CF93BD
:1009C000DF93823029F49091170298609093170278
:1009D00080931B0210921C0280E480931D0280E130
:1009E00080931E0280E580931F0280910C020E947A
:1009F000870080910D028F3F11F00E948700809147
:100A00000E020E948700C8E0D2E09E0128503240CA
:100A10008091170284FD0AC084E090E02196281797
:100A200039073CF48E810E948700EFCF88E090E088
:100A3000F5CF8BE39DE00197F1F760E080910C0228
:100A40000E94B30160E080910E020E94B301809188
:100A50000D028F3F19F060E00E94B30180911702F0
:100A600084FD39C063E088E092E00E945904CBE441
:100A7000D6E4CE010197F1F763E088E092E00E94AE
:100A800059042197F1F763E088E092E00E9459044D
:100A900083E592E00197F1F762E088E092E00E943E
:100AA00059048091170280620E94D90484E08093E7
:100AB00018028CE00E94D90481E00E94D9048BE3E3
:100AC0009FE10197F1F782E08093190286E0DF91C0
:100AD000CF910C94D90480620E94D9048BE496E4EF
:100AE0000197F1F78091170280620E94D90483E593
:100AF00092E00197F1F78091170280620E94D90479
:100B0000D0CF41E00E94860481E090E008954F92AA
:100B10005F926F927F928F929F92AF92BF92CF928D
:100B2000DF92EF92FF920F931F93CF936B017C01A3
:100B3000742EAC019B010E94270B882399F08EE153
:100B400091E0CF911F910F91FF90EF90DF90CF90A8
:100B5000BF90AF909F908F907F906F905F904F90DD
:100B60000C94F20346015701E894B7F82FEF3FEFDA
:100B70004FE75FE7C501B4010E94270B81110DC04B
:100B80002FEF3FEF4FE75FE7C501B4010E945D091A
:100B900018161CF482E291E0D4CF2FEF3FEF4FE71D
:100BA0005FE4C701B6010E94B50A18161CF486E27C
:100BB00091E0C7CF2FEF3FEF4FE75FECC701B601E2
:100BC0000E945D0987FDF3CF20E030E0A901C70155
:100BD000B6010E945D0910E000E087FF0CC041E013
:100BE0006DE288E092E00E948604F7FAF094F7F84C
:100BF000F09401E010E0C0E060E070E080E09FE38E
:100C00007C1641F020E030E040E251E40E946209AD
:100C1000CF5FF6CFA70196010E94F1084B015C015E
:100C20000E94D4092B013C014AE00E94FF03080FF7
:100C3000191FCC23C9F1C301B2010E94030A9B0111
:100C4000AC01C501B4010E94F0084B015C0141E018
:100C50006EE288E092E00E9486040F5F1F4FC15051
:100C600018F120E030E040E251E4C501B4010E94F7
:100C7000BA0A2B013C010E94D4094B01B12CA12CD2
:100C80004AE0C501B4010E94FF03080F191FC50106
:100C9000B4010E94030A9B01AC01C301B2010E948E
:100CA000F0084B015C01DBCFC801CF911F910F9180
:100CB000FF90EF90DF90CF90BF90AF909F908F907C
:100CC0007F906F905F904F9008951F920F920FB694
:100CD0000F9211242F933F934F935F936F937F93C2
:100CE0008F939F93AF93BF93EF93FF9381E591E031
:100CF0000E942401FF91EF91BF91AF919F918F913D
:100D00007F916F915F914F913F912F910F900FBE07
:100D10000F901F9018951F920F920FB60F921124EB
:100D20002F938F939F93EF93FF93E0916101F09145
:100D300062018081E0916701F091680182FD1BC032
:100D4000908180916A018F5F8F7320916B01821770
:100D500041F0E0916A01F0E0EF5AFE4F958F8093E9
:100D60006A01FF91EF919F918F912F910F900FBE8C
:100D70000F901F9018958081F4CF1F920F920FB69D
:100D80000F9211242F933F938F939F93AF93BF9311
:100D90008091450190914601A0914701B091480191
:100DA0003091440123E0230F2D3758F50196A11D02
:100DB000B11D209344018093450190934601A09377
:100DC0004701B09348018091490190914A01A09157
:100DD0004B01B0914C010196A11DB11D80934901B9
:100DE00090934A01A0934B01B0934C01BF91AF91F6
:100DF0009F918F913F912F910F900FBE0F901F9059
:100E0000189526E8230F0296A11DB11DD2CFCF93CE
:100E1000DF93E1E5F1E01382128288EE93E0A0E037
:100E2000B0E084839583A683B78384E091E09183C7
:100E3000808385EC90E09587848784EC90E09787A9
:100E4000868780EC90E0918B808B81EC90E0938B97
:100E5000828B82EC90E0958B848B86EC90E0978B74
:100E6000868B118E128E138E148EE8E0F2E01382C0
:100E7000128286E191E09183808386E084838FEF04
:100E8000858387E0868385E0878384E0808783E0AD
:100E9000818782E0828713861486158616861786D8
:100EA00081E00E94DF04CEEED1E01B861A86198213
:100EB00018821E8A1F8A188E198E88EC90E09F83F4
:100EC0008E8388E090E09D878C8789E090E09F8703
:100ED0008E878AE090E0998B888B8BE090E09B8BEB
:100EE0008A8B88E00E9487008E850E94870088890F
:100EF0000E9487008A890E9487001D8A1C8A84E0DC
:100F000090E099878887DF91CF910895789484B590
:100F1000826084BD84B5816084BD85B5826085BDF5
:100F200085B5816085BD80916E00816080936E0083
:100F30001092810080918100826080938100809175
:100F40008100816080938100809180008160809326
:100F500080008091B10084608093B1008091B000E6
:100F600081608093B00080917A00846080937A00E1
:100F700080917A00826080937A0080917A0081600B
:100F800080937A0080917A00806880937A00109232
:100F9000C10082E00E94DF048AE291E00E94F20335
:100FA000E0911B02E23008F006C1E150F0E0E85F9A
:100FB000FD4F848980680E94D90487E391E00E94F4
:100FC000F203E0916101F091620182E08083E0919F
:100FD0005D01F0915E011082E0915F01F09160018E
:100FE0008FEC808310926901E0916501F0916601B8
:100FF00086E08083E0916301F091640180818061EB
:101000008083E0916301F091640180818860808336
:10101000E0916301F0916401808180688083E091B8
:101020006301F091640180818F7D80838DE00E9457
:1010300087008CE00E948700C0E0D0E060E08DE097
:101040000E94B30160E08CE00E94B3018EE00E9438
:101050000F035C018FE00E940F03BC01990F880B06
:10106000990B0E94050A20E030E040E85AE30E9414
:10107000BA0A20E030E44CE955E40E94BA0A20E0C4
:1010800030E040E251E40E9462096B017C01B5014D
:10109000BB0C880B990B0E94050A20E030E048EC5D
:1010A00052E40E94BA0A20E030EC4FE754E40E9478
:1010B00062099B01AC0160E070E088EC92E40E9460
:1010C000F0084B015C0180924D0190924E01A0927C
:1010D0004F01B0925001E1E080911B028111E0E0EC
:1010E000E195F0E0E85FFD4F8489845F80680E94AD
:1010F000D90442E0C501B4010E948705E0911B02BA
:10110000E23008F05AC0E150F0E0E85FFD4F84891A
:10111000845F80680E94D90442E0C701B6010E9442
:101120008705C0904D01D0904E01E0904F01F090A6
:10113000500120E030E048E452E4C701B6010E94CB
:10114000B50A87FD3CC061E08DE00E94B3018BEFE2
:101150009FEF0E9449030E9424034B015C0184EF2E
:10116000C82EDD24D394E12CF12C0E9424036819AD
:1011700079098A099B09683E734081059105A8F3A6
:1011800021E0C21AD108E108F10888EE880E83E058
:10119000981EA11CB11CC114D104E104F10429F76B
:1011A000209709F44BCF0E941001882309F446CF01
:1011B0000E94000043CFE1E0F9CEE1E0A5CF20E0BE
:1011C00030E048E452E4C701B6010E945D0987FFA0
:1011D000C2CF61E08CE00E94B30185E090E0B9CF1E
:1011E0005058BB27AA270E9408090C947B0A0E942A
:1011F0006D0A38F00E94740A20F039F49F3F19F408
:1012000026F40C946A0A0EF4E095E7FB0C94640A49
:10121000E92F0E948C0A58F3BA17620773078407F4
:10122000950720F079F4A6F50C94AE0A0EF4E0953B
:101230000B2EBA2FA02D0B01B90190010C01CA0190
:10124000A0011124FF27591B99F0593F50F4503E3B
:1012500068F11A16F040A22F232F342F4427585F2D
:10126000F3CF469537952795A795F0405395C9F745
:101270007EF41F16BA0B620B730B840BBAF09150FD
:10128000A1F0FF0FBB1F661F771F881FC2F70EC09C
:10129000BA0F621F731F841F48F48795779567956F
:1012A000B795F7959E3F08F0B0CF9395880F08F05B
:1012B0009927EE0F9795879508950E94400A08F4A4
:1012C00081E008950E9476090C947B0A0E94740ABA
:1012D00058F00E946D0A40F029F45F3F29F00C9409
:1012E000640A51110C94AF0A0C946A0A0E948C0A89
:1012F00068F39923B1F3552391F3951B550BBB2745
:10130000AA2762177307840738F09F5F5F4F220F89
:10131000331F441FAA1FA9F335D00E2E3AF0E0E880
:1013200032D091505040E695001CCAF72BD0FE2FCA
:1013300029D0660F771F881FBB1F2617370748075E
:10134000AB07B0E809F0BB0B802DBF01FF27935816
:101350005F4F3AF09E3F510578F00C94640A0C946C
:10136000AF0A5F3FE4F3983ED4F38695779567958F
:10137000B795F7959F5FC9F7880F911D969587954B
:1013800097F90895E1E0660F771F881FBB1F62176A
:1013900073078407BA0720F0621B730B840BBA0B28
:1013A000EE1F88F7E09508950E94940A88F09F57F1
:1013B00098F0B92F9927B751B0F0E1F0660F771F79
:1013C000881F991F1AF0BA95C9F714C0B13091F06F
:1013D0000E94AE0AB1E008950C94AE0A672F782FF0
:1013E0008827B85F39F0B93FCCF386957795679534
:1013F000B395D9F73EF490958095709561957F4FA0
:101400008F4F9F4F0895E89409C097FB3EF4909545
:101410008095709561957F4F8F4F9F4F9923A9F0CD
:10142000F92F96E9BB279395F6958795779567955C
:10143000B795F111F8CFFAF4BB0F11F460FF1BC0A0
:101440006F5F7F4F8F4F9F4F16C0882311F096E933
:1014500011C0772321F09EE8872F762F05C06623E1
:1014600071F096E8862F70E060E02AF09A95660F9A
:10147000771F881FDAF7880F9695879597F9089553
:10148000990F0008550FAA0BE0E8FEEF1616170695
:10149000E807F907C0F012161306E407F50798F0FD
:1014A000621B730B840B950B39F40A2661F0232B16
:1014B000242B252B21F408950A2609F4A140A69592
:1014C0008FEF811D811D089597F99F6780E870E077
:1014D00060E008959FEF80EC089500240A941616AA
:1014E000170618060906089500240A941216130612
:1014F000140605060895092E0394000C11F48823A0
:1015000052F0BB0F40F4BF2B11F460FF04C06F5FBB
:101510007F4F8F4F9F4F089557FD9058440F551F91
:1015200059F05F3F71F04795880F97FB991F61F065
:101530009F3F79F087950895121613061406551FDC
:10154000F2CF4695F1DF08C0161617061806991F48
:10155000F1CF86957105610508940895E894BB273D
:1015600066277727CB0197F908950E94400A08F46F
:101570008FEF08950E94CD0A0C947B0A0E946D0A99
:1015800038F00E94740A20F0952311F00C94640A3C
:101590000C946A0A11240C94AF0A0E948C0A70F30E
:1015A000959FC1F3950F50E0551F629FF001729F08
:1015B000BB27F00DB11D639FAA27F00DB11DAA1F17
:1015C000649F6627B00DA11D661F829F2227B00D64
:1015D000A11D621F739FB00DA11D621F839FA00DEF
:1015E000611D221F749F3327A00D611D231F849F3F
:1015F000600D211D822F762F6A2F11249F57504096
:101600009AF0F1F088234AF0EE0FFF1FBB1F661F10
:10161000771F881F91505040A9F79E3F510580F0D9
:101620000C94640A0C94AF0A5F3FE4F3983ED4F341
:10163000869577956795B795F795E7959F5FC1F77D
:10164000FE2B880F911D9695879597F908950E9416
:10165000400A880B990B089597FB072E16F4009407
:1016600007D077FD09D00E94680B07FC05D03EF437
:10167000909581959F4F0895709561957F4F08953E
:10168000A1E21A2EAA1BBB1BFD010DC0AA1FBB1F86
:10169000EE1FFF1FA217B307E407F50720F0A21BF8
:1016A000B30BE40BF50B661F771F881F991F1A9465
:1016B00069F760957095809590959B01AC01BD018F
:1016C000CF010895EE0FFF1F0590F491E02D0994CE
:1016D000AA1BBB1B51E107C0AA1FBB1FA617B70758
:1016E00010F0A61BB70B881F991F5A95A9F7809574
:0C16F0009095BC01CD010895F894FFCF47
:1016FC00000000004601A600D30093010401E200A3
:10170C00F600000000008105A600EF03EE036E61F9
:10171C006E00696E66006F76660048756D65646173
:10172C0064202825293D0054656D706572617475BF
:04173C0072613D0099
:00000001FF
